{
  "contractName": "HawkerHut",
  "abi": [
    {
      "anonymous": false,
      "inputs": [
        {
          "indexed": false,
          "internalType": "string",
          "name": "message",
          "type": "string"
        },
        {
          "indexed": false,
          "internalType": "bool",
          "name": "result",
          "type": "bool"
        },
        {
          "indexed": false,
          "internalType": "uint256",
          "name": "amount",
          "type": "uint256"
        }
      ],
      "name": "success",
      "type": "event"
    },
    {
      "inputs": [
        {
          "internalType": "string",
          "name": "id",
          "type": "string"
        }
      ],
      "name": "pay",
      "outputs": [],
      "stateMutability": "payable",
      "type": "function",
      "payable": true
    },
    {
      "inputs": [
        {
          "internalType": "string",
          "name": "id",
          "type": "string"
        }
      ],
      "name": "hawkerId",
      "outputs": [],
      "stateMutability": "nonpayable",
      "type": "function"
    },
    {
      "inputs": [
        {
          "internalType": "string",
          "name": "id",
          "type": "string"
        }
      ],
      "name": "cancelPayment",
      "outputs": [],
      "stateMutability": "nonpayable",
      "type": "function"
    },
    {
      "inputs": [
        {
          "internalType": "string",
          "name": "id",
          "type": "string"
        }
      ],
      "name": "partialPayment",
      "outputs": [],
      "stateMutability": "nonpayable",
      "type": "function"
    },
    {
      "inputs": [
        {
          "internalType": "string",
          "name": "id",
          "type": "string"
        }
      ],
      "name": "completePayment",
      "outputs": [],
      "stateMutability": "nonpayable",
      "type": "function"
    },
    {
      "inputs": [
        {
          "internalType": "string",
          "name": "id",
          "type": "string"
        }
      ],
      "name": "hawker_withdraw",
      "outputs": [],
      "stateMutability": "nonpayable",
      "type": "function"
    }
  ],
  "bytecode": "0x608060405234801561001057600080fd5b50611a56806100206000396000f3fe6080604052600436106100555760003560e01c80632b66d72e1461005a57806332410f651461007657806373dc16061461009f57806384126e01146100c8578063b6b89528146100f1578063fb2b20561461011a575b600080fd5b610074600480360381019061006f9190611196565b610143565b005b34801561008257600080fd5b5061009d60048036038101906100989190611196565b6103f1565b005b3480156100ab57600080fd5b506100c660048036038101906100c19190611196565b61067b565b005b3480156100d457600080fd5b506100ef60048036038101906100ea9190611196565b61097a565b005b3480156100fd57600080fd5b5061011860048036038101906101139190611196565b610d68565b005b34801561012657600080fd5b50610141600480360381019061013c9190611196565b610f9e565b005b6706f05b59d3b20000341061036c57600060086007346101639190611218565b61016d9190611289565b90506706f05b59d3b200003410156101ba576040517f08c379a00000000000000000000000000000000000000000000000000000000081526004016101b19061133d565b60405180910390fd5b336000836040516101cb91906113ce565b908152602001604051809103902060000160006101000a81548173ffffffffffffffffffffffffffffffffffffffff021916908373ffffffffffffffffffffffffffffffffffffffff1602179055503360008360405161022b91906113ce565b908152602001604051809103902060010160006101000a81548173ffffffffffffffffffffffffffffffffffffffff021916908373ffffffffffffffffffffffffffffffffffffffff1602179055508060008360405161028b91906113ce565b908152602001604051809103902060020181905550600080836040516102b191906113ce565b908152602001604051809103902060030181905550732836a509122a7a200ae11af4484020e22317fb8073ffffffffffffffffffffffffffffffffffffffff166108fc823461030091906113e5565b9081150290604051600060405180830381858888f1935050505015801561032b573d6000803e3d6000fd5b507fc57f6c02bf9c5fbdac025b71c1341ea66f77af130324453e0ed9b51afd5e545660013460405161035e92919061148f565b60405180910390a1506103ee565b3373ffffffffffffffffffffffffffffffffffffffff166108fc349081150290604051600060405180830381858888f193505050501580156103b2573d6000803e3d6000fd5b507fc57f6c02bf9c5fbdac025b71c1341ea66f77af130324453e0ed9b51afd5e54566000806040516103e5929190611510565b60405180910390a15b50565b3373ffffffffffffffffffffffffffffffffffffffff1660008260405161041891906113ce565b908152602001604051809103902060000160009054906101000a900473ffffffffffffffffffffffffffffffffffffffff1673ffffffffffffffffffffffffffffffffffffffff160361063d573373ffffffffffffffffffffffffffffffffffffffff1660008260405161048c91906113ce565b908152602001604051809103902060000160009054906101000a900473ffffffffffffffffffffffffffffffffffffffff1673ffffffffffffffffffffffffffffffffffffffff1614610514576040517f08c379a000000000000000000000000000000000000000000000000000000000815260040161050b90611598565b60405180910390fd5b6000600260008360405161052891906113ce565b9081526020016040518091039020600201546105449190611289565b90508060008360405161055791906113ce565b9081526020016040518091039020600201600082825461057791906113e5565b925050819055508060008360405161058f91906113ce565b908152602001604051809103902060030160008282546105af91906115b8565b925050819055503373ffffffffffffffffffffffffffffffffffffffff166108fc829081150290604051600060405180830381858888f193505050501580156105fc573d6000803e3d6000fd5b507fc57f6c02bf9c5fbdac025b71c1341ea66f77af130324453e0ed9b51afd5e545660018260405161062f929190611638565b60405180910390a150610678565b7fc57f6c02bf9c5fbdac025b71c1341ea66f77af130324453e0ed9b51afd5e545660008060405161066f929190611674565b60405180910390a15b50565b3373ffffffffffffffffffffffffffffffffffffffff166000826040516106a291906113ce565b908152602001604051809103902060010160009054906101000a900473ffffffffffffffffffffffffffffffffffffffff1673ffffffffffffffffffffffffffffffffffffffff160361093c576000808260405161070091906113ce565b90815260200160405180910390206003015411156108fc573373ffffffffffffffffffffffffffffffffffffffff1660008260405161073f91906113ce565b908152602001604051809103902060010160009054906101000a900473ffffffffffffffffffffffffffffffffffffffff1673ffffffffffffffffffffffffffffffffffffffff16146107c7576040517f08c379a00000000000000000000000000000000000000000000000000000000081526004016107be906116fc565b60405180910390fd5b600080826040516107d891906113ce565b9081526020016040518091039020600301541161082a576040517f08c379a000000000000000000000000000000000000000000000000000000000815260040161082190611768565b60405180910390fd5b6000808260405161083b91906113ce565b90815260200160405180910390206003015490506000808360405161086091906113ce565b9081526020016040518091039020600301819055503373ffffffffffffffffffffffffffffffffffffffff166108fc829081150290604051600060405180830381858888f193505050501580156108bb573d6000803e3d6000fd5b507fc57f6c02bf9c5fbdac025b71c1341ea66f77af130324453e0ed9b51afd5e54566001826040516108ee9291906117d4565b60405180910390a150610937565b7fc57f6c02bf9c5fbdac025b71c1341ea66f77af130324453e0ed9b51afd5e545660008060405161092e929190611810565b60405180910390a15b610977565b7fc57f6c02bf9c5fbdac025b71c1341ea66f77af130324453e0ed9b51afd5e545660008060405161096e92919061184c565b60405180910390a15b50565b3373ffffffffffffffffffffffffffffffffffffffff166000826040516109a191906113ce565b908152602001604051809103902060000160009054906101000a900473ffffffffffffffffffffffffffffffffffffffff1673ffffffffffffffffffffffffffffffffffffffff161480610a6157503373ffffffffffffffffffffffffffffffffffffffff16600082604051610a1791906113ce565b908152602001604051809103902060010160009054906101000a900473ffffffffffffffffffffffffffffffffffffffff1673ffffffffffffffffffffffffffffffffffffffff16145b15610d2a5760008082604051610a7791906113ce565b9081526020016040518091039020600201541115610cea573373ffffffffffffffffffffffffffffffffffffffff16600082604051610ab691906113ce565b908152602001604051809103902060000160009054906101000a900473ffffffffffffffffffffffffffffffffffffffff1673ffffffffffffffffffffffffffffffffffffffff161480610b7657503373ffffffffffffffffffffffffffffffffffffffff16600082604051610b2c91906113ce565b908152602001604051809103902060010160009054906101000a900473ffffffffffffffffffffffffffffffffffffffff1673ffffffffffffffffffffffffffffffffffffffff16145b610bb5576040517f08c379a0000000000000000000000000000000000000000000000000000000008152600401610bac90611598565b60405180910390fd5b60008082604051610bc691906113ce565b90815260200160405180910390206002015411610c18576040517f08c379a0000000000000000000000000000000000000000000000000000000008152600401610c0f90611768565b60405180910390fd5b60008082604051610c2991906113ce565b908152602001604051809103902060020154905060008083604051610c4e91906113ce565b9081526020016040518091039020600201819055503373ffffffffffffffffffffffffffffffffffffffff166108fc829081150290604051600060405180830381858888f19350505050158015610ca9573d6000803e3d6000fd5b507fc57f6c02bf9c5fbdac025b71c1341ea66f77af130324453e0ed9b51afd5e5456600182604051610cdc9291906118d4565b60405180910390a150610d25565b7fc57f6c02bf9c5fbdac025b71c1341ea66f77af130324453e0ed9b51afd5e5456600080604051610d1c929190611810565b60405180910390a15b610d65565b7fc57f6c02bf9c5fbdac025b71c1341ea66f77af130324453e0ed9b51afd5e5456600080604051610d5c929190611674565b60405180910390a15b50565b3373ffffffffffffffffffffffffffffffffffffffff16600082604051610d8f91906113ce565b908152602001604051809103902060000160009054906101000a900473ffffffffffffffffffffffffffffffffffffffff1673ffffffffffffffffffffffffffffffffffffffff1603610f60573373ffffffffffffffffffffffffffffffffffffffff16600082604051610e0391906113ce565b908152602001604051809103902060000160009054906101000a900473ffffffffffffffffffffffffffffffffffffffff1673ffffffffffffffffffffffffffffffffffffffff1614610e8b576040517f08c379a0000000000000000000000000000000000000000000000000000000008152600401610e8290611598565b60405180910390fd5b60008082604051610e9c91906113ce565b908152602001604051809103902060020154905080600083604051610ec191906113ce565b90815260200160405180910390206002016000828254610ee191906113e5565b9250508190555080600083604051610ef991906113ce565b90815260200160405180910390206003016000828254610f1991906115b8565b925050819055507fc57f6c02bf9c5fbdac025b71c1341ea66f77af130324453e0ed9b51afd5e5456600182604051610f5292919061195c565b60405180910390a150610f9b565b7fc57f6c02bf9c5fbdac025b71c1341ea66f77af130324453e0ed9b51afd5e5456600080604051610f92929190611674565b60405180910390a15b50565b33600082604051610faf91906113ce565b908152602001604051809103902060010160006101000a81548173ffffffffffffffffffffffffffffffffffffffff021916908373ffffffffffffffffffffffffffffffffffffffff1602179055507fc57f6c02bf9c5fbdac025b71c1341ea66f77af130324453e0ed9b51afd5e5456600160006040516110319291906119e4565b60405180910390a150565b6000604051905090565b600080fd5b600080fd5b600080fd5b600080fd5b6000601f19601f8301169050919050565b7f4e487b7100000000000000000000000000000000000000000000000000000000600052604160045260246000fd5b6110a38261105a565b810181811067ffffffffffffffff821117156110c2576110c161106b565b5b80604052505050565b60006110d561103c565b90506110e1828261109a565b919050565b600067ffffffffffffffff8211156111015761110061106b565b5b61110a8261105a565b9050602081019050919050565b82818337600083830152505050565b6000611139611134846110e6565b6110cb565b90508281526020810184848401111561115557611154611055565b5b611160848285611117565b509392505050565b600082601f83011261117d5761117c611050565b5b813561118d848260208601611126565b91505092915050565b6000602082840312156111ac576111ab611046565b5b600082013567ffffffffffffffff8111156111ca576111c961104b565b5b6111d684828501611168565b91505092915050565b6000819050919050565b7f4e487b7100000000000000000000000000000000000000000000000000000000600052601160045260246000fd5b6000611223826111df565b915061122e836111df565b925082820261123c816111df565b91508282048414831517611253576112526111e9565b5b5092915050565b7f4e487b7100000000000000000000000000000000000000000000000000000000600052601260045260246000fd5b6000611294826111df565b915061129f836111df565b9250826112af576112ae61125a565b5b828204905092915050565b600082825260208201905092915050565b7f596f75206e65656420746f20706179206d6f7265207468616e20302e3165746860008201527f6572000000000000000000000000000000000000000000000000000000000000602082015250565b60006113276022836112ba565b9150611332826112cb565b604082019050919050565b600060208201905081810360008301526113568161131a565b9050919050565b600081519050919050565b600081905092915050565b60005b83811015611391578082015181840152602081019050611376565b60008484015250505050565b60006113a88261135d565b6113b28185611368565b93506113c2818560208601611373565b80840191505092915050565b60006113da828461139d565b915081905092915050565b60006113f0826111df565b91506113fb836111df565b9250828203905081811115611413576114126111e9565b5b92915050565b7f5061796d656e74207375636365737366756c0000000000000000000000000000600082015250565b600061144f6012836112ba565b915061145a82611419565b602082019050919050565b60008115159050919050565b61147a81611465565b82525050565b611489816111df565b82525050565b600060608201905081810360008301526114a881611442565b90506114b76020830185611471565b6114c46040830184611480565b9392505050565b6000819050919050565b6000819050919050565b60006114fa6114f56114f0846114cb565b6114d5565b6111df565b9050919050565b61150a816114df565b82525050565b600060608201905081810360008301526115298161131a565b90506115386020830185611471565b6115456040830184611501565b9392505050565b7f596f7520617265206e6f742074686520637573746f6d65720000000000000000600082015250565b60006115826018836112ba565b915061158d8261154c565b602082019050919050565b600060208201905081810360008301526115b181611575565b9050919050565b60006115c3826111df565b91506115ce836111df565b92508282019050808211156115e6576115e56111e9565b5b92915050565b7f5061727469616c207061796d656e74207375636365737366756c000000000000600082015250565b6000611622601a836112ba565b915061162d826115ec565b602082019050919050565b6000606082019050818103600083015261165181611615565b90506116606020830185611471565b61166d6040830184611480565b9392505050565b6000606082019050818103600083015261168d81611575565b905061169c6020830185611471565b6116a96040830184611501565b9392505050565b7f596f7520617265206e6f7420746865206861776b657200000000000000000000600082015250565b60006116e66016836112ba565b91506116f1826116b0565b602082019050919050565b60006020820190508181036000830152611715816116d9565b9050919050565b7f596f752068617665206e6f206d6f6e657920746f207769746864726177000000600082015250565b6000611752601d836112ba565b915061175d8261171c565b602082019050919050565b6000602082019050818103600083015261178181611745565b9050919050565b7f4861776b6572205769746864726177616c207375636365737366756c00000000600082015250565b60006117be601c836112ba565b91506117c982611788565b602082019050919050565b600060608201905081810360008301526117ed816117b1565b90506117fc6020830185611471565b6118096040830184611480565b9392505050565b6000606082019050818103600083015261182981611745565b90506118386020830185611471565b6118456040830184611501565b9392505050565b60006060820190508181036000830152611865816116d9565b90506118746020830185611471565b6118816040830184611501565b9392505050565b7f5061796d656e742063616e63656c6c6174696f6e207375636365737366756c00600082015250565b60006118be601f836112ba565b91506118c982611888565b602082019050919050565b600060608201905081810360008301526118ed816118b1565b90506118fc6020830185611471565b6119096040830184611480565b9392505050565b7f436f6d706c657465207061796d656e74207375636365737366756c0000000000600082015250565b6000611946601b836112ba565b915061195182611910565b602082019050919050565b6000606082019050818103600083015261197581611939565b90506119846020830185611471565b6119916040830184611480565b9392505050565b7f4861776b6572206964206e6f7465640000000000000000000000000000000000600082015250565b60006119ce600f836112ba565b91506119d982611998565b602082019050919050565b600060608201905081810360008301526119fd816119c1565b9050611a0c6020830185611471565b611a196040830184611501565b939250505056fea2646970667358221220772eeca8e863523f81fddf12836c3df8cb49ae65f936fb95326796410411d8d664736f6c63430008120033",
  "immutableReferences": {},
  "source": "// SPDX-License-Identifier: MIT\r\npragma solidity >=0.4.22 <0.9.0;\r\n\r\ncontract HawkerHut {\r\n  struct details {\r\n    address payable customer;\r\n    address payable hawker;\r\n    uint256 cus_amount;\r\n    uint256 hawker_amount;\r\n  }\r\n  event success(string message, bool result, uint256 amount);\r\n  mapping(string => details) hawkerStalls;\r\n\r\n  //Customer side-> approve function (where customer address is noted and customer pays)\r\n  function pay(string memory id) public payable {\r\n    if (msg.value >= 0.5 ether) {\r\n      uint256 amounte = msg.value*7/8;\r\n      require(msg.value >= 0.5 ether, \"You need to pay more than 0.1ether\");\r\n      hawkerStalls[id].customer = payable(msg.sender);\r\n      hawkerStalls[id].hawker = payable(msg.sender);\r\n      hawkerStalls[id].cus_amount = amounte;\r\n      hawkerStalls[id].hawker_amount = 0;\r\n      payable(0x2836A509122A7A200aE11AF4484020e22317FB80).transfer(msg.value-amounte);\r\n        emit success(\"Payment successful\", true, msg.value);\r\n    } else {\r\n      payable(msg.sender).transfer(msg.value);\r\n      emit success(\"You need to pay more than 0.1ether\", false,0);\r\n    }\r\n  }\r\n\r\n  //Hawker side-> accept function (where hawker address is noted)\r\n  function hawkerId(string memory id) public {\r\n    hawkerStalls[id].hawker = payable(msg.sender);\r\n    emit success(\"Hawker id noted\", true,0);\r\n  }\r\n\r\n  //Customer side-> cancel function (where customer can cancel the payment and withdraw the money)\r\n  function cancelPayment(string memory id) public {\r\n    if ((hawkerStalls[id].customer == msg.sender)||(hawkerStalls[id].hawker == msg.sender)) {\r\n      if (hawkerStalls[id].cus_amount > 0) {\r\n        require(\r\n          ((hawkerStalls[id].customer == msg.sender)||(hawkerStalls[id].hawker == msg.sender)),\r\n          \"You are not the customer\"\r\n        );\r\n        require(\r\n          hawkerStalls[id].cus_amount > 0,\r\n          \"You have no money to withdraw\"\r\n        );\r\n        uint256 amounte = hawkerStalls[id].cus_amount;\r\n        hawkerStalls[id].cus_amount = 0;\r\n        payable(msg.sender).transfer(amounte);\r\n        emit success(\"Payment cancellation successful\", true, amounte);\r\n      } else {\r\n        emit success(\"You have no money to withdraw\", false,0);\r\n      }\r\n    } else {\r\n      emit success(\"You are not the customer\", false,0);\r\n    }\r\n  }\r\n\r\n  //Customer side-> partial payment function\r\n  //(where customer can assign half the amount to hawker and withdraw rest)\r\n  function partialPayment(string memory id) public {\r\n    if (hawkerStalls[id].customer == msg.sender) {\r\n      require(\r\n        hawkerStalls[id].customer == msg.sender,\r\n        \"You are not the customer\"\r\n      );\r\n      uint256 amount = hawkerStalls[id].cus_amount / 2;\r\n      hawkerStalls[id].cus_amount -= amount;\r\n      hawkerStalls[id].hawker_amount += amount;\r\n      payable(msg.sender).transfer(amount);\r\n      emit success(\"Partial payment successful\", true, amount);\r\n    } else {\r\n      emit success(\"You are not the customer\", false,0);\r\n    }\r\n  }\r\n\r\n  //Customer side-> complete payment function\r\n  //(where customer can assign the complete amount to hawker)\r\n  function completePayment(string memory id) public {\r\n    if (hawkerStalls[id].customer == msg.sender) {\r\n      require(\r\n        hawkerStalls[id].customer == msg.sender,\r\n        \"You are not the customer\"\r\n      );\r\n      uint256 amount = hawkerStalls[id].cus_amount;\r\n      hawkerStalls[id].cus_amount -= amount;\r\n      hawkerStalls[id].hawker_amount += amount;\r\n      emit success(\"Complete payment successful\", true, amount);\r\n    } else {\r\n      emit success(\"You are not the customer\", false,0);\r\n    }\r\n  }\r\n\r\n  //Hawker side-> withdraw function (where hawker can withdraw the money)\r\n  function hawker_withdraw(string memory id) public {\r\n    if (hawkerStalls[id].hawker == msg.sender) {\r\n      if (hawkerStalls[id].hawker_amount > 0) {\r\n        require(\r\n          hawkerStalls[id].hawker == msg.sender,\r\n          \"You are not the hawker\"\r\n        );\r\n        require(\r\n          hawkerStalls[id].hawker_amount > 0,\r\n          \"You have no money to withdraw\"\r\n        );\r\n        uint256 amounte = hawkerStalls[id].hawker_amount;\r\n        hawkerStalls[id].hawker_amount = 0;\r\n        payable(msg.sender).transfer(amounte);\r\n        emit success(\"Hawker Withdrawal successful\", true, amounte);\r\n      } else {\r\n        emit success(\"You have no money to withdraw\", false,0);\r\n      }\r\n    } else {\r\n      emit success(\"You are not the hawker\", false,0);\r\n    }\r\n  }\r\n}\r\n",
  "sourcePath": "C:\\Users\\DELL\\OneDrive\\Desktop\\hawkershut_full_stack\\client\\truffle\\contracts\\HawkerHut.sol",
  "compiler": {
    "name": "solc",
    "version": "0.8.18+commit.87f61d96.Emscripten.clang"
  },
  "schemaVersion": "3.4.14",
  "updatedAt": "2023-07-09T11:41:20.456Z",
  "networkType": "ethereum",
  "devdoc": {
    "kind": "dev",
    "methods": {},
    "version": 1
  },
  "userdoc": {
    "kind": "user",
    "methods": {},
    "version": 1
  }
}